:020000040800F2
:10000000000400205301000861010008630100089A
:100010006501000867010008690100080000000090
:100020000000000000000000000000006B0100085C
:100030006D010008000000006F0100087101000858
:100040005F0C00087301000873010008B138000854
:100050007301000873010008993900087301000852
:10006000B10A0008D70A0008030B00087301000852
:100070007301000873010008730100087301000890
:100080007301000873010008730100087301000880
:100090007301000873010008730100087301000870
:1000A0007301000873010008730100087301000860
:1000B000A7420008990C00087301000873010008AA
:1000C0007301000873010008730100087301000840
:1000D00073010008CF0700087301000873010008CE
:1000E0007301000873010008730100087301000820
:1000F0007301000873010008730100087301000810
:100100007301000873010008510E00087301000814
:1001100073010008730100087301000873010008EF
:1001200073010008730100087301000873010008DF
:10013000DFF80CD004F0FAFF004800478101000806
:10014000200A002030BF72B662B680F3088870477C
:10015000704708488047084981F3088807480047E6
:10016000FEE7FEE7FEE7FEE7FEE7FEE7FEE7FEE767
:10017000FEE7FEE751010008200A002031010008D7
:100180000EB500200290092000F0B7FA4FF4165186
:10019000482000F057FB482000F044F900F0CAFB6B
:1001A00001F01AFA7748416848208847022302AADA
:1001B0007549764803F017FD03F02AFC4FF47840A8
:1001C0007349088073A010210B46C822CDE90010A6
:1001D00032213C2003F028F972A010210B46C822DE
:1001E000CDE9001046213C2003F01EF970A010213B
:1001F0000B46C822CDE900105A213C2003F014F927
:100200006FA010210B46C822CDE900106E213C20C2
:1002100003F00AF91F205E4908806CA010210B46EC
:10022000C822CDE9001082213C2003F0FDF86BA02C
:1002300010210B46C822CDE9001096213C2003F086
:10024000F3F866A010210B46C822CDE90010B421B6
:100250003C2003F0E9F893E000201021CDE90010E4
:10026000BDF80820042382219C2003F070F8BDF81B
:10027000080004F04DFE019004F063FE07464FF0C5
:1002800066325B4B04F0D2FD824604F06DFE0646FA
:10029000BDF80A0004F03CFE019004F052FE07464F
:1002A0004FF06632524B04F0C1FD824604F05CFE12
:1002B0008146BDF808104FA004F094FFBDF80A1065
:1002C00051A004F08FFF304604F027FE84B2484668
:1002D00004F023FE85B20020102101232246CDE93F
:1002E000001096219C2003F032F8002010210123F9
:1002F0002A46CDE90010B4219C2003F028F82046BE
:1003000004F006FE0746314604F01DFD064643494B
:10031000304604F01BFD0646304604F0FEFD07465D
:100320008020102103233A46CDE900109621AC200D
:1003300003F00DF8284604F0EBFD0746494604F0AB
:1003400002FD81463549484604F000FD8146484695
:1003500004F0E3FD07468020102103233A46CDE94F
:100360000010B421AC2002F0F2FF2D48006808B95B
:10037000012000E000202A490860FA2000F08AF8F5
:100380006AE70000580000204C24014008000240A9
:1003900010000020576172536869702053544D3328
:1003A00032000000414443205445535400000000F3
:1003B00041544F4D40414C49454E54454B0000007F
:1003C000323031322F392F37000000004144435F73
:1003D0004348305F56414C3A000000004144435FBF
:1003E0004348305F564F4C3A302E30303056000084
:1003F00066664A3FB5B1C7B031B5E7D1B9CEAAA359
:10040000BA2564560A000000B5B1C7B032B5E7D1CD
:10041000B9CEAAA3BA2564560A00000000007A44A7
:10042000948121424FF0E021096921F004014FF04D
:10043000E0221161C21700EB5272C2F3C702234BD4
:100440001A701946097801EB4102C2EBC1114FF64F
:10045000FF7202EAC1011E4A1180704701461B4A21
:1004600012784A434FF0E0235A6100229A61012238
:100470001A6100BF4FF0E022106900F001021AB1CA
:1004800000F48032002AF5D000224FF0E0231A61F8
:100490009A61704701460E4A12884A434FF0E023A2
:1004A0005A6100229A6101221A6100BF4FF0E022D6
:1004B000106900F001021AB100F48032002AF5D070
:1004C00000224FF0E0231A619A617047000000207B
:1004D00002000020AA4A0A400243AA4B1A60704751
:1004E0000146072323EA01021202A64B1B1D1868CE
:1004F0004FF6FF031840A44B18431043A14B1B1D9C
:10050000186070472DE9F0478046894614461D461D
:100510002046E11704EB9171C1F3870AE11704EB60
:1005200091718910A4EB8101CFB2042000EBC700C8
:10053000C7B22846FFF7D4FFC5F1040008FA00F659
:100540000F20284100EA0900064306F00F06202C80
:1005500009DA8E4801680120A04001434FF0E020F5
:10056000C0F800110BE08948001D0068A4F12001CB
:1005700001228A4010434FF0E021C1F80401844871
:1005800050F82A0006FA07F10843814941F82A0089
:10059000BDE8F08770B504460B46CE1701EB9676A2
:1005A000C6F38700CE1701EB9676B610A1EB860650
:1005B000B606350E774B9B6943F00103754EB36168
:1005C0004FEAB63353F820300F26AE40B343724E95
:1005D00046F82030334653F8203004FA05F61E431F
:1005E0006D4B43F820606D4B1B6801268E403343F2
:1005F0006A4E336002F0010343B1684B0C331B6851
:1006000001268E403343654E0C36336002F0020300
:1006100043B1624B08331E6801238B401E435F4B7E
:1006200008331E6070BD00B500205A490861C860DB
:100630001420486100208861C8610846006840F0C5
:100640000100086008464068554908405149486023
:1006500008460068534908404E490860084600684B
:1006600020F4802008600846406820F4FE004860BE
:100670000020886000214FF00060FFF72BFF00BDD5
:1006800010B540480830006840F004003D4908318A
:1006900008604048C06940F080503E49C861424807
:1006A000406840F48070404948600846006840F067
:1006B000040008600846006840F002000860FFF788
:1006C00041FD10BD3048001D2E49091D08607047CE
:1006D000014649062F4A926942F001022D4B9A6168
:1006E0002D4A083A526822F0E0622B4B083B5A60D0
:1006F0001A4652680A435A60704730B504460025CE
:10070000FFF791FF2348006840F4803021490860DA
:1007100000BF20480068400C0028FAD04FF48060E9
:100720001C494860A01EC4B20846406840EA8440A4
:1007300048600846406840F4803048601B480068C4
:1007400040F03200194908601248006840F080709B
:100750001049086000BF0F480068400E0028FAD01A
:100760000C48406840F002000A49486005E009482A
:100770004068C0F3870505F00305022DF7D130BDB1
:1007800080FFFF1F08ED00E00000FA0500E100E037
:1007900000E400E0001002400800014000040140B5
:1007A0000000FFF8FFFFF6FE00700040002002404E
:1007B000014600BF704700BF584A128802F040024D
:1007C000002AF9D0C2B2554B1B1D1A8070475349FD
:1007D000098801F0200111B35049091D0988C8B2E8
:1007E0004F49098801F40041C9B94D49098801F40C
:1007F000804161B10A2803D00021494A118020E0DC
:100800004749098841F40041454A118019E00D2803
:1008100006D14349098841F48041414A118010E0E2
:100820003F490988C1F30D013E4A50543C490988AB
:10083000491C3B4A118011460988C72901DD002166
:10084000118070472DE9F05F05460E46300104F037
:100850005FFB8146344905FB01F004F059FB8246F9
:10086000494604F0A5FA0746384604F056FB84B220
:10087000204604F04DFB8346394604F064FA824674
:100880004FF0834104F062FA814604F046FB804653
:100890004FF6FF7000EA041404EB080084B223480A
:1008A000806940F00400214988610846806940F46D
:1008B000804088611E48006820F47F601C49086001
:1008C0000846006840F40B6008601848C06840F4AF
:1008D00080401649C8600846C06820F48040C8605F
:1008E0000E4808300480001D008842F20C010843C5
:1008F0000A490C3108800846008840F4807008805E
:100900000846008840F020000880022325220321A9
:100910000846FFF7F7FDBDE8F09F000000380140F2
:10092000080000204401002040420F000010024057
:10093000040801401848806940F0080016498861A1
:100940000846806940F0400088611448006820F43F
:100950007000124908600846006840F440100860C2
:100960000E480C30006840F020000C490C31086043
:100970000B48006820F470000949086008460068C8
:1009800040F44010086006480C30006840F0200039
:1009900003490C310860704700100240000C014010
:1009A000001801403A48806940F0040038498861E5
:1009B0000846806940F0400088613648006820F0B1
:1009C0000F00344908600846006840F008000860DD
:1009D00031480068314908402F49086008460068DE
:1009E0002F4908432C4908602B480C30006840F020
:1009F0001C0029490C310860704710B5044614B139
:100A00000120284908702748007858B32648006814
:100A100058B12548001F006838B1234808380068DD
:100A200018B12248006801281CD10A20FFF732FDC6
:100A300000201C4908701C48006808B9012010BD3E
:100A40001948001F006808B90220F8E7164808385E
:100A5000006808B90320F2E714480068012815D19E
:100A60000420ECE71048006801280FD10E48001F51
:100A7000006801280AD10C4808380068012805D10F
:100A80000A48006810B90120064908700020D6E71E
:100A9000001002400008014000180140FF00F0FF74
:100AA000008808000A0000201001234200012142B2
:100AB00010B50A20FFF7EEFC3948006838B939480C
:100AC000006808B9012000E00020364908600420D1
:100AD0003549086010BD10B50A20FFF7DBFC30482F
:100AE000001D006848B92E488C30006808B9012004
:100AF00000E000202A498C31086008202A4908605B
:100B000010BD10B50A20FFF7C5FC25480830006865
:100B100088B92448006808B9012000E00020214974
:100B200008602248D0F8940108B9012000E00020B4
:100B30001B498C31086010201B49086010BD10B59E
:100B4000FFF730FF022200210846FFF723FD0122B4
:100B500002210420FFF71EFD012203210420FFF7DC
:100B600019FD012204210846FFF714FD0223062285
:100B700003211846FFF7C6FC02230822194618462F
:100B8000FFF7C0FC0223092201211846FFF7BAFC37
:100B900002230A2200211846FFF7B4FC10BD000012
:100BA00008012342948121421404014000002342A1
:100BB00045F25552334B1A601A46506091604AF61E
:100BC000AA221A604CF6CC421A6070474AF6AA2054
:100BD0002C490860704770B506460C4615462A48F1
:100BE000C06940F400602849C86128480078304056
:100BF000264908702648006840EAC5102449086064
:100C0000084600684FF68071084021490860084690
:100C1000006820430860081F00681C4909780843E1
:100C20001B49091F08600846006840F08000086002
:100C30000223002203211846FFF764FC0020144918
:100C4000091D0860081F006840F40070091F086053
:100C500070BD00F07F010E4A121F1160704700B591
:100C60000A480078FFF7F5FF00200949091D0860D0
:100C70000848006808B9012000E000200549086024
:100C800000BD000000300040001002400B000020BA
:100C9000042C0040940123429C48008800F001008D
:100CA00038B19B48006808B9012000E0002098494D
:100CB00008609648008820F0010094490880704739
:100CC00070B505460C469348C06940F00200914952
:100CD000C8618E481C300580001F04808B48001FAF
:100CE000008840F001008949091F088087481038B2
:100CF000008840F0010085491039088002231D2238
:100D000003210120FFF7FEFB70BD824AD26942F049
:100D10000202804BDA611A46926942F008029A6137
:100D20007D4A126822F470027B4B1A601A461268E0
:100D300042F430021A60774A926942F00102754B20
:100D40009A61764A526822F44062744B5A601A469D
:100D5000526842F400625A606C4A1C321080121FC2
:100D600011806A4A0832128842F4E042674B083325
:100D70001A801A46128842F400621A80634A1032BE
:100D8000128842F01002614B10331A80DA135F4B65
:100D9000103B1A801A46128842F001021A807047EE
:100DA00070B504460D465B48C06940F008005949DB
:100DB000C8610846806940F00400886158480068AE
:100DC00020F00F00564908600846006840F008000F
:100DD000086053480C30006851490C310860514894
:100DE0000480001F05804F481438008840F001003F
:100DF0004C49143908800846008808800846008855
:100E0000088048480C38008846490C390880084654
:100E1000008840F00100088042482038008840F0F7
:100E200002004049203908800846008840F001004F
:100E300008803C482C38008840F0010039492C39A2
:100E400008800223322200211846FFF75BFB70BDA9
:100E500034491C3908883449097801F08001002997
:100E60004ED100F00101D1B12F49097801F04001C4
:100E7000A9B12D49097801F03F013F290AD12A493A
:100E8000097841F08001284A11704FF6FF71274A16
:100E9000118004E024490978491C234A117000F0AC
:100EA000020169B32049097801F0400199B11E4956
:100EB000097841F080011C4A11701A4908310988EB
:100EC0001A4A118017490C39098821F00201154A84
:100ED0000C3A118014E00021134A1170134A11805A
:100EE0001149097841F040010F4A117000210D4A63
:100EF000083A1180111F098841F00201121F118068
:100F00000021084A1C3A118070470000100400407C
:100F10009401234200100240000C014000000140F7
:100F2000000801402C0C00400C0000200E000020A6
:100F3000FC4908807047FB49891C08807047F948C4
:100F4000801C00887047F74A1080921C11807047FF
:100F500010B504462046FFF7EBFF0520FFF77EFAA9
:100F6000FFF7EDFF10BDF048C079EE4908807047EB
:100F7000EC49891C0880704730B5014601F01F0418
:100F8000C1F34513CA0AE50205EB43151544A8B29F
:100F900030BD00BF0100A0F10102D0B2FAD170470C
:100FA00010B503460C46E048808849F2413188423A
:100FB00014D1DD49087AFFF7BBFF1812FFF7BBFF1A
:100FC000D8B2FFF7B8FFD849487AFFF7B1FF20122F
:100FD000FFF7B1FFE0B2FFF7AEFF36E0D2488088FE
:100FE00046F6040188421DD1CF488079012804D1FA
:100FF000CD480088401EC01A83B2CB49087AFFF75B
:1010000097FF1812FFF797FFD8B2FFF794FFC64972
:10101000487AFFF78DFF2012FFF78DFFE0B2FFF750
:101020008AFF12E0C0488079012804D1BE480088B8
:10103000401EC01A83B2BC49087A1946FFF783FFE5
:10104000B949487A2146FFF77EFF10BD2DE9F041EE
:1010500005460E4600240027A046B3480088A84253
:1010600003DDB1484088B04202DC0020BDE8F081D9
:1010700031462846FFF794FFAB48808849F241315A
:10108000884205D0A848808846F60401884203D1EA
:101090002E20FFF74DFF02E02220FFF749FFA24874
:1010A000808849F22031884202D10220FFF771FF87
:1010B0009C48801C008800B100240220FFF769FFD3
:1010C0009848801C04889848808849F241318842B9
:1010D0000CD10220FFF75DFF9248801CB0F8008021
:1010E000E7B24FF6FF7000EA072708E08E488088D5
:1010F00046F60401884202D18A48801C04888A4846
:10110000808849F22531884216D08748808844F289
:101110003551884210D084488088091F88420BD0FE
:101120008148808848F68911884205D07E488088A9
:101130004BF20551884201D1204697E77A488088D2
:1011400049F24131884207D1E012C002B91240EAA7
:10115000411040EAE82089E72046FFF70DFF85E7C8
:1011600000B57148808849F24131884205D06E4807
:10117000808846F60401884203D12920FFF7D8FE73
:1011800004E040F273110720FFF7DDFE00BD00B55B
:101190006548808849F24131884205D0624880889C
:1011A00046F60401884203D12820FFF7C1FE03E080
:1011B00000210720FFF7C7FE00BD70B504460023DD
:1011C00000265948807901281ED15748808846F664
:1011D0000401884218D0082C15D2DFE804F0040678
:1011E000080A0C0E101206240DE007240BE004245C
:1011F00009E0052407E0012405E0002403E00324BE
:1012000001E0022400BF00BF4748808849F2413115
:10121000884205D04448808846F6040188427DD142
:10122000082C1CD2DFE804F00406090C0F12151874
:1012300000BF14E043F0800311E043F040030EE0F0
:1012400043F0C0030BE043F0200308E043F06003E9
:1012500005E043F0A00302E043F0E00300BF00BF5D
:10126000362643F008033048808846F60401884259
:1012700001D143F0020319463046FFF764FE03F044
:10128000200018B92848807901280DD12648008807
:1012900025494988884214DA23480588408822492C
:1012A0000880084645800CE01F4800881E49498890
:1012B000884206DD1C48058840881B49088008468E
:1012C00045801949087AFFF733FE0020FFF733FE07
:1012D0000020FFF730FE14490988491EC1F30F2092
:1012E000FFF729FE10490978491EC8B2FFF723FE0F
:1012F0000D49487AFFF71CFE0020FFF71CFE002076
:10130000FFF719FE08494988491EC1F30F20FFF76E
:1013100012FE05498978491EC8B200E006E0FFF7D1
:101320000AFE35E0FE07006C0C020020082C1CD2DF
:10133000DFE804F004070A0D0F12151843F030031C
:1013400013E043F0100310E043F020030DE000BF72
:101350000BE043F0380308E043F0280305E043F0D6
:10136000180302E043F0080300BF00BFFE48808876
:1013700048F68911884204D1112646F24000034301
:1013800002E0032643F4805319463046FFF7DBFDA5
:1013900070BD30B504460D4629462046FFF700FED5
:1013A000FFF7E1FDF1480088F149088030BD30B514
:1013B00003460C461546EC48808849F24131884284
:1013C00014D1E949087AFFF7B3FD1812FFF7B3FD0E
:1013D000D8B2FFF7B0FDE449487AFFF7A9FD201223
:1013E000FFF7A9FDE0B2FFF7A6FD36E0DE488088F2
:1013F00046F6040188421DD1DB488079012804D1DA
:10140000D9480088401EC01A83B2D749087AFFF72E
:101410008FFD1812FFF78FFDD8B2FFF78CFDD24970
:10142000487AFFF785FD2012FFF785FDE0B2FFF750
:1014300082FD12E0CC488079012804D1CA48008896
:10144000401EC01A83B2C849087A1946FFF77BFDCF
:10145000C549487A2146FFF776FDC348C079C4499B
:10146000891E0880881C058030BD10B50446002CFC
:101470003DD1BD498871F02008804FF4A0704880AC
:101480000846808849F24131884205D0B6488088B4
:1014900046F60401884214D12C20B349C8712A2091
:1014A00008722B2048720846808846F6040188425C
:1014B0005CD14FF4A070AC4908804FF4F0704880C4
:1014C00054E0A948808848F68911884207D1222033
:1014D000A549C8714E2008724F20487246E022206C
:1014E000A149C87120200872212048723EE00120E5
:1014F0009D4988714FF4A0700880F020488008460C
:10150000808849F24131884207D12C209649C87120
:101510002A2008722B20487228E09348808846F6DB
:10152000040188420DD12C208F49C8712B200872EC
:101530002A2048724FF4F07008804FF4A070488061
:1015400014E08948808848F68911884207D1222012
:101550008549C8714F2008724E20487206E022204B
:101560008149C87121200872202048720020FFF7AD
:1015700024FE10BD70B5044600267B4805884088CF
:1015800045437948808846F60401884216D176485A
:101590008079012812D10020734988712A200872AD
:1015A0002B20487200210846FFF7FAFC01206E4903
:1015B00088712B2008722A20487203E00021084617
:1015C000FFF7EEFCFFF7CFFC002602E0684804803E
:1015D000761CAE42FAD370BD10B56648406940F43F
:1015E0008070644948610846806940F0080088615D
:1015F0000846806940F0200088610846806940F014
:10160000400088610846806940F4807088615A48CB
:10161000006820F00F00584908600846006840F054
:101620000300086055480068554908405349086060
:10163000084600685349084350490860081F00687D
:1016400000F0FF20091F08600846006840F0BB104A
:1016500008604D48006800204B4908600846006853
:1016600040F0BB300860081F006820F07040091F80
:1016700008600846006840F0304008604348406811
:1016800020F47020414948600846406840F430200A
:1016900048600846006820F00F00086008460068AF
:1016A00040F00B00086000204FF020418861C861C5
:1016B000374908604FF02040806940F480504FF077
:1016C000204188610846806940F48040886108466E
:1016D000806940F0100088610846C069C86108460A
:1016E000C06940F00100C8610846C06940F47060FC
:1016F000C86127480068C1F81C0125480068C1F886
:101700001C010846D0F81C0140F44070C1F81C01CF
:101710000846806940F0010088613220FEF7BAFE79
:1017200001210020FFF70FFC3220FEF7B3FE00205E
:10173000FFF70EFC0C49888008468088FF280ADBEA
:10174000084680884FF6FF71884204D0064880889A
:10175000B0F5134F63D1D320FFF7EAFBFFF7EFFBA0
:10176000FFF7EDFB16E000000C0200201000002047
:101770000008006C00100240000C014004140140FD
:1017800000F0FF00BB0B00BB04180140002001402B
:101790001C0100A0FFF7D3FBFE4988800846808823
:1017A0004FF6FF7101EA0020FA498880FFF7C7FB76
:1017B000F84989880843F74988800846808849F2B3
:1017C000413188421BD0BF20FFF7B2FBFFF7B7FBC8
:1017D000FFF7B5FBFFF7B3FBFFF7B1FBED498880DF
:1017E000084680884FF6FF7101EA0020E9498880A9
:1017F000FFF7A5FBE74989880843E6498880E54863
:10180000808849F24131884209D0E248808846F612
:101810000401884203D049F24130DE498880DD4826
:101820008188DDA003F0DEFCDA48808849F241318E
:1018300088427CD1CF20FFF77BFB0020FFF77BFBAA
:10184000C120FFF778FB3020FFF775FBED20FFF795
:101850006FFB6420FFF76FFB0320FFF76CFB122088
:10186000FFF769FB8120FFF766FBE820FFF760FBCD
:101870008520FFF760FB1020FFF75DFB7A20FFF764
:101880005AFBCB20FFF754FB3920FFF754FB2C20E9
:10189000FFF751FB0020FFF74EFB3420FFF74BFB17
:1018A0000220FFF748FBF720FFF742FB2020FFF75D
:1018B00042FBEA20FFF73CFB0020FFF73CFB002047
:1018C000FFF739FBC020FFF733FB1B20FFF733FB8B
:1018D000C120FFF72DFB0120FFF72DFBC520FFF7EF
:1018E00027FB3020FFF727FB3020FFF724FBC72022
:1018F000FFF71EFBB720FFF71EFB3620FFF718FB94
:101900004820FFF718FB3A20FFF712FB5520FFF79E
:1019100012FBB120FFF70CFB0020FFF70CFB1A2095
:10192000FFF709FBB620FFF703FB0A2000E099E070
:10193000FFF701FBA220FFF7FEFAF220FFF7F8FA0B
:101940000020FFF7F8FA2620FFF7F2FA0120FFF750
:10195000F2FAE020FFF7ECFA0F20FFF7ECFA2A206A
:10196000FFF7E9FA2820FFF7E6FA0820FFF7E3FA85
:101970000E20FFF7E0FA0820FFF7DDFA5420FFF70A
:10198000DAFAA920FFF7D7FA4320FFF7D4FA0A20A2
:10199000FFF7D1FA0F20FFF7CEFA0020FFF7CBFABE
:1019A0000020FFF7C8FA0020FFF7C5FA0020FFF774
:1019B000C2FAE120FFF7BCFA0020FFF7BCFA1520BD
:1019C000FFF7B9FA1720FFF7B6FA0720FFF7B3FAC7
:1019D0001120FFF7B0FA0620FFF7ADFA2B20FFF732
:1019E000AAFA5620FFF7A7FA3C20FFF7A4FA052031
:1019F000FFF7A1FA1020FFF79EFA0F20FFF79BFADE
:101A00003F20FFF798FA3F20FFF795FA0F20FFF7E6
:101A100092FA2B20FFF78CFA0020FFF78CFA0020B7
:101A2000FFF789FA0120FFF786FA3F20FFF783FAD4
:101A30002A20FFF77DFA0020FFF77DFA0020FFF74C
:101A40007AFA0020FFF777FAEF20FFF774FA1120F7
:101A5000FFF76EFA7820FEF71DFD2920FFF768FAE0
:101A600001F01DBA4B48808846F6040188427CD1BB
:101A70001120FFF75DFA1420FEF70CFDD020FFF7D0
:101A800057FA0720FFF757FA4220FFF754FA1D20B4
:101A9000FFF751FAD120FFF74BFA0020FFF74BFA7E
:101AA0001A20FFF748FA0920FFF745FAD220FFF77E
:101AB0003FFA0120FFF73FFA2220FFF73CFAC0204F
:101AC000FFF736FA1020FFF736FA3B20FFF733FA1C
:101AD0000020FFF730FA0220FFF72DFA1120FFF760
:101AE0002AFAC520FFF724FA0320FFF724FAC820BA
:101AF000FFF71EFA0020FFF71EFA2520FFF71BFA5A
:101B00002120FFF718FA0520FFF715FA0020FFF74C
:101B100012FA0A20FFF70FFA6520FFF70CFA2520CA
:101B2000FFF709FA7720FFF706FA5020FFF703FACC
:101B30000F20FFF700FA0020FFF7FDF9F820FFF76C
:101B4000F7F90120FFF7F7F9FE20FFF7F1F9002080
:101B5000FFF7F1F90220FFF7EEF92020FFF7E8F98F
:101B60003620FFF7E5F9082000E038E0FFF7E3F959
:101B70003A20FFF7DDF95520FFF7DDF92B20FFF7BD
:101B8000D7F90020FFF7D7F90020FFF7D4F901209B
:101B90000AE000000C020020204C43442049443A53
:101BA00025780D0A00000000FFF7C5F93F20FFF778
:101BB000C2F92A20FFF7BCF90020FFF7BCF900208A
:101BC000FFF7B9F90120FFF7B6F9DF20FFF7B3F906
:101BD0007820FEF75FFC2920FFF7AAF940E7FE48CE
:101BE000808849F2253188427ED147F6F001E52010
:101BF000FFF7A9F94FF480710120FFF7A4F94FF422
:101C0000E0610220FFF79FF941F230010320FFF766
:101C10009AF900210420FFF796F940F202210820EA
:101C2000FFF791F900210920FFF78DF900210A2023
:101C3000FFF789F900210C20FFF785F900210D201D
:101C4000FFF781F900210F20FFF77DF90021102017
:101C5000FFF779F907211120FFF775F9002112200C
:101C6000FFF771F900211320FFF76DF9002107201C
:101C7000FFF769F941F290611020FFF764F940F233
:101C800027211120FFF75FF99D211220FFF75BF953
:101C90004FF4C8511320FFF756F925212920FFF7EB
:101CA00052F90D212B20FFF74EF907213020FFF7C5
:101CB0004AF940F203313120FFF745F90321322080
:101CC000FFF741F940F206213520FFF73CF90821E2
:101CD0003620FFF738F940F206413720FFF733F995
:101CE0004FF44171382000E057E0FFF72CF907214D
:101CF0003920FFF728F940F202613C20FFF723F971
:101D000008213D20FFF71FF900215020FFF71BF9A4
:101D1000EF215120FFF717F900215220FFF713F9A7
:101D200040F23F115320FFF70EF94FF42741602096
:101D3000FFF709F901216120FFF705F900216A2069
:101D4000FFF701F900218020FFF7FDF80021812035
:101D5000FFF7F9F800218220FFF7F5F80021832032
:101D6000FFF7F1F800218420FFF7EDF8002185202E
:101D7000FFF7E9F810219020FFF7E5F84FF4C06174
:101D80009220FFF7E0F840F233110720FFF7DBF86D
:101D900022210020FFF7D7F862E68F48808849F2B9
:101DA000283188427ED141F28F01EC20FFF7CBF839
:101DB00041F23421EF20FFF7C6F84FF48071012083
:101DC000FFF7C1F84FF4E0610220FFF7BCF841F2E1
:101DD00030010320FFF7B7F800210420FFF7B3F824
:101DE00040F202210820FFF7AEF800210920FFF79A
:101DF000AAF800210A20FFF7A6F801210C20FFF71E
:101E0000A2F800210D20FFF79EF800210F20FFF718
:101E10009AF800211020FFF796F807211120FFF70C
:101E200092F800211220FFF78EF800211320FFF70F
:101E30008AF801210720FFF786F83220FEF72AFBF7
:101E400041F290411020FFF77EF840F22721112047
:101E5000FFF779F83220FEF71DFB8A211220FFF7E9
:101E600072F83220FEF716FB4FF4D0511320FFF723
:101E70006AF806212920FFF766F80D212B20FFF7CD
:101E800062F83220FEF706FB00212020FFF75BF806
:101E900000212120FFF757F83220FEF7FBFA00213E
:101EA000302000E074E0FFF74EF840F2046131208A
:101EB000FFF749F840F205313220FFF744F80021DE
:101EC0003520FFF740F840F609413620FFF73BF890
:101ED0004FF401713720FFF736F840F20131382016
:101EE000FFF731F840F207713920FFF72CF8002195
:101EF0003C20FFF728F840F60A213D20FFF723F8A1
:101F00003220FEF7C7FA00215020FFF71CF8EF211E
:101F10005120FFF718F800215220FFF714F840F283
:101F20003F115320FFF70FF84FF427416020FFF7D0
:101F30000AF801216120FFF706F800216A20FFF767
:101F400002F800218020FEF7FEFF00218120FEF72D
:101F5000FAFF00218220FEF7F6FF00218320FEF722
:101F6000F2FF00218420FEF7EEFF00218520FEF71E
:101F7000EAFF10219020FEF7E6FF4FF4C0619220A7
:101F8000FEF7E1FF40F233110720FEF7DCFF67E5C3
:101F90001148808849F2203188427DD100210846CD
:101FA000FEF7D1FF4FF480710120FEF7CCFF4FF414
:101FB000E0610220FEF7C7FF41F230010320FEF787
:101FC000C2FF00210420FEF7BEFF40F202210820DC
:101FD000FEF7B9FF002101E00C0200200920FEF706
:101FE000B2FF00210A20FEF7AEFF01210C20FEF710
:101FF000AAFF00210D20FEF7A6FF00210F20FEF70B
:10200000A2FF3220FEF746FA40F201110720FEF748
:102010009AFF3220FEF73EFA4FF486511020FEF769
:1020200092FF07211120FEF78EFF4FF488711220D6
:10203000FEF789FF4FF430611320FEF784FF002183
:102040002920FEF780FF44F210012B20FEF77BFFD2
:1020500000215020FEF777FFEF215120FEF773FF9C
:1020600000215220FEF76FFF40F23F115320FEF790
:102070006AFF4FF41C516020FEF765FF01216120CB
:10208000FEF761FF00216A20FEF75DFF002180203E
:10209000FEF759FF002100E031E08120FEF753FFF9
:1020A00000218220FEF74FFF00218320FEF74BFF27
:1020B00000218420FEF747FF00218520FEF743FF23
:1020C00010219020FEF73FFF00219220FEF73BFFFA
:1020D00001219320FEF737FF4FF488719520FEF71A
:1020E00032FF00219720FEF72EFF00219820FEF7F7
:1020F0002AFF40F273110720FEF725FFB0E4FE48E7
:10210000808849F2313188427DD141F21401E720C3
:10211000FEF719FF4FF480710120FEF714FF4FF412
:1021200000710220FEF70FFF41F238010320FEF795
:102130000AFF40F202210820FEF705FF00210920D6
:10214000FEF701FF00210A20FEF7FDFE00210C2012
:10215000FEF7F9FE00210D20FEF7F5FE00210F200D
:10216000FEF7F1FE00211020FEF7EDFE0721112001
:10217000FEF7E9FE00211220FEF7E5FE0021132004
:10218000FEF7E1FEC820FEF785F941F290611020CC
:10219000FEF7D9FE40F227211120FEF7D4FE3220AF
:1021A000FEF778F90C211220FEF7CDFE3220FEF763
:1021B00071F94FF400611320FEF7C5FE11212920AB
:1021C000FEF7C1FE0B212B20FEF7BDFE3220FEF7ED
:1021D00061F900212020FEF7B6FE40F23F112120D8
:1021E000FEF7B1FE00213020FEF7ADFE4FF4837103
:1021F0003120FEF7A8FE00213220FEF7A4FE4FF4A6
:102200000171352000E064E0FEF79DFE41F20A61B5
:102210003620FEF798FE40F207713720FEF793FE56
:102220004FF483713820FEF78EFE40F2077139209B
:10223000FEF789FE40F202413C20FEF784FE40F6A4
:102240000F413D20FEF77FFE00215020FEF77BFE70
:10225000EF215120FEF777FE00215220FEF773FE9A
:1022600040F23F115320FEF76EFE4FF41C516020E8
:10227000FEF769FE01216120FEF765FE00216A205C
:10228000FEF761FE00218020FEF75DFE0021812027
:10229000FEF759FE00218220FEF755FE0021832023
:1022A000FEF751FE00218420FEF74DFE002185201F
:1022B000FEF749FE10219020FEF745FE4FF4C06165
:1022C0009220FEF740FE40F233110720FEF73BFE5E
:1022D00084E48948808845F2084188427ED14FF4E1
:1022E00080710120FEF72FFE4FF4E0610220FEF71F
:1022F0002AFE41F230010320FEF725FE00210420D2
:10230000FEF721FE40F207210820FEF71CFE002107
:102310000920FEF718FE00210A20FEF714FE002116
:102320000C20FEF710FE00210D20FEF70CFE002110
:102330000F20FEF708FE1420FEF7ACF841F2B06162
:102340001020FEF700FE01211120FEF7FCFD012107
:102350001720FEF7F8FD4FF49C711220FEF7F3FDF5
:102360004FF400611320FEF7EEFD09212920FEF74E
:10237000EAFD09212A20FEF7E6FD0021A420FEF750
:10238000E2FD00215020FEF7DEFDEF215120FEF797
:10239000DAFD00215220FEF7D6FD40F23F11532016
:1023A000FEF7D1FD4FF41C516020FEF7CCFD01215A
:1023B0006120FEF7C8FD00216A20FEF7C4FD002160
:1023C0008020FEF7C0FD00218120FEF7BCFD00212A
:1023D0008220FEF7B8FD0021832000E023E0FEF715
:1023E000B2FD00218420FEF7AEFD00218520FEF71E
:1023F000AAFD13219020FEF7A6FD00219220FEF7F2
:10240000A2FD03219320FEF79EFD4FF488719520D5
:10241000FEF799FD40F273110720FEF794FD32207C
:10242000FEF738F8B8E43448808841F20551884214
:102430007ED100210720FEF786FD3220FEF72AF824
:102440004FF48E711220FEF77EFD0121A420FEF7CD
:102450007AFD0F210820FEF776FD08210A20FEF7FD
:1024600072FD08210D20FEF76EFD40F2077130204D
:10247000FEF769FD07213120FEF765FD40F203619B
:102480003220FEF760FD4FF4E0613320FEF75BFD84
:1024900040F202213420FEF756FD02213520FEF7DE
:1024A00052FD41F60F713620FEF74DFD40F20771E7
:1024B0003720FEF748FD00213820FEF744FD0021BB
:1024C0003920FEF740FD40F207713A20FEF73BFD50
:1024D00000213B20FEF737FD07213C20FEF733FDAE
:1024E00000213D20FEF72FFD3220FDF7D3FF012113
:1024F0000720FEF728FD01E00C0200200121172033
:10250000FEF721FD3220FDF7C5FF4FF4BD5110202D
:10251000FEF719FD40F217211120FEF714FD4FF4CC
:102520008F711220FEF70FFD4FF47061132000E051
:1025300097E0FEF708FD00212A20FEF704FD0A219E
:102540002920FEF700FD4FF49F711220FEF7FBFCDF
:1025500000215020FEF7F7FCEF215120FEF7F3FC9D
:1025600000215220FEF7EFFC40F23F115320FEF70E
:10257000EAFC4FF41C516020FEF7E5FC01216120CC
:10258000FEF7E1FC00216A20FEF7DDFC002180203F
:10259000FEF7D9FC00218120FEF7D5FC0021822026
:1025A000FEF7D1FC00218320FEF7CDFC0021842022
:1025B000FEF7C9FC00218520FEF7C5FC1321902001
:1025C000FEF7C1FC4FF440719220FEF7BCFC0521E0
:1025D0009320FEF7B8FC00219520FEF7B4FC002103
:1025E0009720FEF7B0FC00219820FEF7ACFC4FF4DA
:1025F00080710120FEF7A7FC4FF4E0610220FEF796
:10260000A2FC41F238010320FEF79DFC00210420CA
:10261000FEF799FC00210C20FEF795FC00210F200D
:10262000FEF791FC00212020FEF78DFC00212120E7
:10263000FEF789FC21210720FEF785FC1420FDF719
:1026400029FF61210720FEF77EFC1420FDF722FF01
:1026500040F273110720FEF776FC1420FDF71AFFF5
:1026600095E4FE4880884BF2055188427ED10021D6
:102670000846FEF768FC00210846FEF764FC0021CE
:102680000846FEF760FC00210846FEF75CFC0121CD
:10269000A420FEF758FC1420FDF7FCFE4FF41C515B
:1026A0006020FEF750FC40F202210820FEF74BFCB0
:1026B0004FF405713020FEF746FC43F215713120CE
:1026C000FEF741FC40F204613220FEF73CFC40F68C
:1026D00016613320FEF737FC42F211213420FEF759
:1026E00032FC4FF4A8513520FEF72DFC48F207517B
:1026F0003620FEF728FC41F207413720FEF723FC85
:1027000041F203413820FEF71EFC20213920FEF75C
:102710001AFC1A219020FEF716FC00211020FEF76B
:1027200012FC07211120FEF70EFC00211220FEF7FB
:102730000AFC00211320FEF706FC1420FDF7AAFE78
:102740004FF4E6611020FEF7FEFB40F23711112036
:10275000FEF7F9FB1420FDF79DFE4FF4DC7112200B
:10276000FEF7F1FB1420FDF795FE00E083E04FF447
:1027700070611320FEF7E7FB80212A20FEF7E3FBC0
:1027800048212920FEF7DFFB1420FDF783FE4FF4DC
:1027900080710120FEF7D7FB4FF4E0610220FEF7C5
:1027A000D2FB41F238010320FEF7CDFB40F20221BB
:1027B0000820FEF7C8FB00210A20FEF7C4FB002119
:1027C0000C20FEF7C0FB00210D20FEF7BCFB3021E2
:1027D0000E20FEF7B8FB00215020FEF7B4FBEF21DE
:1027E0005120FEF7B0FB00215220FEF7ACFB40F277
:1027F0003F115320FEF7A7FB4FF41C516020FEF75A
:10280000A2FB01216120FEF79EFB00216A20FEF75A
:102810009AFB11219020FEF796FB4FF4C0619220A5
:10282000FEF791FB40F202419320FEF78CFB022160
:102830009420FEF788FB1420FDF72CFE01210720D1
:10284000FEF781FB1420FDF725FE61210720FEF72E
:102850007AFB40F273110720FEF775FB0021202060
:10286000FEF771FB00212120FEF76DFB22210020E5
:10287000FEF769FB13E3794880884CF205518842E2
:102880007ED100210846FEF75EFB00210846FEF7D8
:102890005AFB1420FDF7FEFD00210846FEF753FB0E
:1028A00000210846FEF74FFB00210846FEF74BFBD0
:1028B00000210846FEF747FB0121A420FEF743FB59
:1028C0001420FDF7E7FD4FF41C516020FEF73BFBA1
:1028D00040F606010820FEF736FB40F20371302077
:1028E000FEF731FB01213120FEF72DFB04213220C0
:1028F000FEF729FB4FF481713320FEF724FB4FF4E0
:1029000040713420FEF71FFB40F203113520FEF723
:102910001AFB1F213620FEF716FB40F20371372009
:10292000FEF711FB01213820FEF70DFB04213920B1
:10293000FEF709FB15219020FEF705FB4FF482619D
:102940001020FEF700FB40F247211120FEF7FBFAB2
:102950004FF4DE711220FEF7F6FA4FF46061132097
:10296000FEF7F1FA7820FDF795FD4FF48071012014
:10297000FEF7E9FA4FF400710220FEF7E4FA00E0F6
:1029800050E041F230010320FEF7DDFA08210A2071
:10299000FEF7D9FA00210C20FEF7D5FA20210E20EF
:1029A000FEF7D1FA00210F20FEF7CDFA00212020FA
:1029B000FEF7C9FA00212120FEF7C5FA3D212A20A1
:1029C000FEF7C1FA1420FDF765FD2D212920FEF741
:1029D000BAFA00215020FEF7B6FA4DF2EF0151206D
:1029E000FEF7B1FA00215220FEF7ADFA40F23F1196
:1029F0005320FEF7A8FA00216120FEF7A4FA002177
:102A00006A20FEF7A0FA4FF440719220FEF79BFA7D
:102A100005219320FEF797FA4FF480710720FEF707
:102A200092FA3CE20D48808848F6891188427DD1AF
:102A300001210020FEF787FA4AF6A4010320FEF7E1
:102A400082FA00210C20FEF77EFA40F60C010D20E0
:102A5000FEF779FA4FF42C510E2001E00C02002011
:102A6000FEF771FAB0211E20FEF76DFA42F63F31F3
:102A70000120FEF768FA4FF4C0610220FEF763FA06
:102A800000211020FEF75FFA46F278011120FEF7D0
:102A90005AFA00210520FEF756FA00210620FEF71B
:102AA00052FA4EF61C711620FEF74DFA032117203C
:102AB000FEF749FA40F233210720FEF744FA0021DD
:102AC0000B20FEF740FA00210F20FEF73CFA002110
:102AD0004120FEF738FA00214220FEF734FA0021A7
:102AE0004820FEF730FA40F23F114920FEF72BFA5A
:102AF00000214A20FEF727FA00214B20FEF723FA97
:102B00004FF46F414420FEF71EFA00214520FEF7E6
:102B10001AFA40F23F114620FEF715FA40F207710B
:102B20003020FEF710FA4FF4017100E040E0312050
:102B3000FEF709FA4FF401713220FEF704FA40F271
:102B400002513320FEF7FFF940F207513420FEF71F
:102B5000FAF94FF401713520FEF7F5F94FF40171E0
:102B60003620FEF7F0F940F202513720FEF7EBF97C
:102B700040F202313A20FEF7E6F940F202313B2002
:102B8000FEF7E1F900212320FEF7DDF900212420E2
:102B9000FEF7D9F94FF400412520FEF7D4F90021C2
:102BA0004F20FEF7D0F900214E20FEF7CCF976E158
:102BB000F748808844F2315188427DD101210020BC
:102BC000FEF7C1F90A20FDF765FC41F228611020EB
:102BD000FEF7B9F90E211220FEF7B5F940F63921BA
:102BE0001320FEF7B0F90A20FDF754FC4021112014
:102BF000FEF7A9F950211520FEF7A5F90A20FDF7E7
:102C000049FC1E211220FEF79EF90A20FDF742FC26
:102C10004FF4B1511020FEF796F942F639211320F6
:102C2000FEF791F90A20FDF735FC4FF48071012081
:102C3000FEF789F94FF440710220FEF784F941F262
:102C400038010320FEF77FF940F202210820FEF749
:102C50007AF908210A20FEF776F900213020FEF7E4
:102C600072F940F202413120FEF76DF94FF48371A1
:102C70003220FEF768F940F203513320FEF763F982
:102C80004FF482713420FEF75EF940F201313520B5
:102C9000FEF759F940F207713620FEF754F940F279
:102CA00005313720FEF74FF94FF402713820FEF757
:102CB0004AF940F60B7100E03CE03920FEF743F999
:102CC00002214120FEF73FF94FF41C516020FEF72E
:102CD0003AF901216120FEF736F94FF40471902092
:102CE000FEF731F94FF485719220FEF72CF904219B
:102CF0009320FEF728F94FF48071A020FEF723F906
:102D000001210720FEF71FF921210720FEF71BF9FB
:102D100023210720FEF717F933210720FEF713F9C7
:102D200040F233110720FEF70EF90021A020FEF734
:102D30000AF9B4E09648808844F235518842F8D1C7
:102D400030211520FEF7FFF810219A20FEF7FBF83E
:102D500020211120FEF7F7F843F228411020FEF75A
:102D6000F2F802211220FEF7EEF841F238011320AA
:102D7000FEF7E9F82820FDF78DFB12210846FEF743
:102D8000E2F82820FDF786FB43F220411020FEF7F1
:102D9000DAF843F238011320FEF7D5F84620FDF7A4
:102DA00079FB00213020FEF7CEF840F202413120BD
:102DB000FEF7C9F840F207313220FEF7C4F84FF4AD
:102DC00041713320FEF7BFF804213420FEF7BBF831
:102DD00040F201413520FEF7B6F840F20771362087
:102DE000FEF7B1F840F205313720FEF7ACF84FF4AA
:102DF000C2613820FEF7A7F84FF4C2613920FEF710
:102E0000A2F84FF480710120FEF79DF84FF4407155
:102E10000220FEF798F841F230010320FEF793F804
:102E200040F608010820FEF78EF808210A20FEF778
:102E30008AF84FF41C516020FEF785F801216120CB
:102E4000FEF781F84FF49F719020FEF77CF84FF465
:102E500080719220FEF777F84FF480719320FEF78F
:102E600072F84FF44051A020FEF76DF81021A32016
:102E7000FEF769F801210720FEF765F821210720F8
:102E8000FEF761F823210720FEF75DF833210720C4
:102E9000FEF759F840F233110720FEF754F80020EE
:102EA000FEF7E3FA01203B4908604FF6FF70FEF79A
:102EB00061FB10BD2DE9FC4F05460E4617469846AE
:102EC000DDF82C90002001903148808846F60401FE
:102ED000884229D12E488079012825D1AB46354634
:102EE0002B480088C01B401E86B2474628480088F1
:102EF000A0EB0B00401E1FFA80F8002024498871C7
:102F00002A2008722B20487243463A46314628460A
:102F1000CDF80090FFF7CEFF01201D4988712B20CE
:102F200008722A2048721CE0781B401C80B2019075
:102F3000344614E021462846FEF732F8FEF713F82F
:102F40004FF0000A06E04846FDF7F5FF0AF10100E0
:102F50001FFA80FA01988245F5DB601C84B2444573
:102F6000E8DDBDE8FC8F2DE9F84F07460D46904699
:102F70009946DDF828B0A8EB0700401C80B200900D
:102F8000A9EB0500401C1FFA80FA00241AE000009B
:102F90000C02002080812142281981B23846FDF7B9
:102FA000FFFFFDF7E0FF002607E004FB0A603BF8A7
:102FB0001000FE490880701C86B200988642F4DB3F
:102FC000601C84B25445E7DBBDE8F88F2DE9FF4F64
:102FD00084B081468A460020039002900698A0EBB8
:102FE00009050798A0EB0A06CDF80490CDF800A0DB
:102FF000002D01DD012705E00DB9002702E04FF0AB
:10300000FF376D42002E02DD4FF0010806E016B9D1
:103010004FF0000802E04FF0FF387642B54201DD84
:103020002C4600E034464FF0000B21E0009A91B2AC
:10303000019A90B2FEF7ADF90398284403900298E4
:10304000304402900398A04205DD0398001B0390D2
:103050000198384401900298A04205DD0298001BB7
:1030600002900098404400900BF101001FFA80FB91
:10307000601C8345DADD08B0BDE8F08FF0B504468A
:103080000D4616461F462B46324629462046FFF778
:103090009DFF3B46224629462046FFF797FF3B46C9
:1030A000324639462046FFF791FF3B4632462946D5
:1030B0003046FFF78BFFF0BD2DE9F04306460F4683
:1030C0009046002445460320A0EB48093CE07A1BCB
:1030D00091B2321990B2FEF75CF93A1B91B27219B3
:1030E00090B2FEF756F93A1991B2721990B2FEF702
:1030F00050F97A1991B2321990B2FEF74AF97A1959
:1031000091B2321B90B2FEF744F93A1991B2721B98
:1031100090B2FEF73EF97A1B91B2321B90B2FEF7E5
:1031200038F93A1B91B2721B90B2FEF732F9641C67
:10313000B9F1000F03DAA000801D814404E0601B98
:1031400080000A3081446D1EAC42C0DDBDE8F083D2
:103150002DE9F84F05460F4690461E4600979448C5
:10316000B0F80090A8F1200000F0FF080A980028AD
:103170004ED1002449E00C2E07D108EB48008D49C0
:1031800001EB800010F804A004E08B4800EB08106D
:1031900010F804A04FF0000B31E00AF0800018B1E5
:1031A0008348A0F8009003E08448008880490880A4
:1031B00039462846FEF7EDF84FEA4A604FEA106AB2
:1031C000781C87B27E480088A84204DC7848A0F8C2
:1031D0000090BDE8F88F0098381AB0420BD1009FDC
:1031E000681C85B276480088A84203DC7048A0F8C5
:1031F0000090EEE706E00BF1010000F0FF0BBBF1E1
:10320000080FCADB00BF601CC4B2B442B3DB44E0A9
:10321000002440E00C2E07D108EB4800654901EB83
:10322000800010F804A004E0634800EB081010F8D8
:1032300004A04FF0000B28E00AF0800018B13946D6
:103240002846FEF7A6F84FEA4A604FEA106A781C53
:1032500087B25B484088A84203DC5548A0F800903C
:10326000B7E70098381AB0420BD1009F681C85B2AE
:1032700053480088A84203DC4D48A0F80090A8E716
:1032800006E00BF1010000F0FF0BBBF1080FD3DBF0
:1032900000BF601CC4B2B442BCDB4548A0F800903B
:1032A00000BF96E710B50246012000E050430B0036
:1032B000A1F10104E1B2F9D110BD2DE9FF4F81B0B8
:1032C000074691461E460E9D4FF0000A002439E045
:1032D000301B401EC1B20A20FFF7E4FFB9FBF0F03B
:1032E0000A21B0FBF1F201FB1208BAF1000F16D16E
:1032F000701EA04213DDB8F1000F0ED10020AB46C6
:1033000005EBDB71491001FB0471009088B22B467C
:1033100020220299FFF71CFF12E04FF0010A002063
:10332000AB4605EBDB71491001FB0471009088B2DC
:1033300008F13001CAB22B460299FFF709FF00BF1E
:10334000601CC4B2B442C3DB05B0BDE8F08F2DE908
:10335000FF4F82B0064692461F46DDE90F48002027
:10336000019000255BE0781B401EC1B20A20FFF7E8
:1033700099FFBAFBF0F00A21B0FBF1F201FB120950
:103380000198A8BB781EA84235DDB9F1000F30D1F5
:1033900008F08000E0B108F00100A34604EBDB7107
:1033A000491001FB0561009088B20BE00008006C39
:1033B0001000002086560008FA5A0008120000206B
:1033C0000C020020234630220399FFF7C1FE0EE0D5
:1033D00008F00100A34604EBDB71491001FB056115
:1033E000009088B2234620220399FFF7B1FE14E033
:1033F00001E00120019008F00100A34604EBDB711D
:10340000491001FB0561009088B209F13001CAB290
:1034100023460399FFF79CFE00BF681CC5B2BD425E
:10342000A1DB06B0BDE8F08F2DE9F84704460D4654
:1034300090469946DDE9096704F0FF0A08EB0400AD
:103440001FFA80F809EB05001FFA80F916E04445E1
:1034500002DB5446A81985B24D4500DB14E000207C
:1034600000903A78334629462046FFF771FE3046F1
:1034700006EBD07104EB61018CB27F1C38787E289A
:1034800002DC38782028E2DA00BFBDE8F8870000C7
:10349000F0B503460C461546642093FBF0F0C6B227
:1034A000642093FBF0F700FB1730C1B2132E02DD4E
:1034B00001F16400C1B20846CF1701EB977701EB29
:1034C000A707BAB2072092FBF0F700FB172082B2E1
:1034D0005719601EDFF82CC41CF80000384482B273
:1034E000CF1701EB9777BF10A1EB87071FB9032C0C
:1034F00001DA501E82B2072092FBF0F700FB172082
:10350000C0B2F0BD0146CA1701EB92729210A1EB56
:10351000820292B9642091FBF0F200FB121050B9C4
:103520004FF4C87091FBF0F200FB121008B90120B3
:1035300070470020FCE70120FAE70020F8E770B5AB
:10354000002600240025F04806883604001D008867
:103550000644EE48B6FBF0F4ED480088A0423CD0AB
:10356000EB490C8040F2B27510E02846FFF7CAFF25
:1035700040B1B4F5B77F02D3A4F5B77404E0681C7A
:1035800085B206E0A4F26D14681C85B2B4F5B67F6E
:10359000EBD800BFDF488580002516E0DD4988882C
:1035A000FFF7B0FF30B1012D04D11D2C01D31D3C1C
:1035B00009E00CE0D848405DA04203D8D648405D01
:1035C000241A00E003E0681C85B21C2CE6D200BF80
:1035D000681CD0498871601CC871CC48B6FBF0F1FA
:1035E00000FB11644FF46160B4FBF0F0C94908704E
:1035F0004FF46160B4FBF0F100FB11403C21B0FBE3
:10360000F1F0C44948704FF46160B4FBF0F100FB85
:1036100011403C21B0FBF1F201FB1200BD49887062
:103620000B46DA7999799888FFF732FFB949087221
:10363000002070BD2DE9F04F06460F469046994692
:10364000DDE909AB002440F2B270864203DB40F6AC
:103650003300864202DD0120BDE8F08F40F2B275F2
:103660000AE02846FFF74EFF10B1AC48044401E0E1
:10367000AB480444681C85B2B542F2DB781EC7B281
:10368000002510E0A448405D40F2A321484304EB2C
:10369000C0143046FFF736FF18B1012D01D19B4809
:1036A0000444681C85B2BD42ECDBA8F1010040F285
:1036B000A321484304EBC014C9EB4910C0EB092017
:1036C00004EB0014CAEB0A1004EB80045C44954838
:1036D000C06940F080509349C8610846C06940F015
:1036E0000060C8619048006840F480708E490860AE
:1036F00085481438008840F0100083491439088048
:103700008149091D0C80200C091F08807E4814384F
:10371000008820F010007C491439088000BF7A48E6
:103720001438008800F020000028F8D0FFF707FFC9
:10373000002091E71CB500247C48008845F2500128
:1037400088427DD07748C06940F080507549C86193
:103750000846C06940F00060C8617348006840F4E2
:103760008070714908606F48006A40F480306D498C
:1037700008620846006A20F4803008620846006A41
:1037800040F00100086204E0601CC4B20A20FCF7AB
:1037900081FE6448006A00F0020008B9FA2CF3DBED
:1037A000FA2C01DB01201CBD5E48006A40F48070E9
:1037B0005C4908620846006A40F40040086200BFA5
:1037C00051481438008800F020000028F8D000BFCD
:1037D0004D481438008800F008000028F8D04A4806
:1037E0001838008840F0010047491839088000BFA8
:1037F00045481438008800F020000028F8D04248DE
:103800001438008840F010003F4914390880002027
:10381000091D088047F6FF70091D08803720102118
:103820000D230722CDE90010092140F2DC70FFF7DB
:1038300001FF35481438008820F01000324900E0BC
:1038400011E01439088000BF2F481438008800F0B8
:1038500020000028F8D045F250003449088034A0F8
:1038600001F0C0FC1AE000BF27481438008800F0BF
:1038700008000028F8D024481838008840F00100DB
:1038800021491839088000BF1F481438008800F00B
:1038900020000028F8D029A001F0A4FC0223032274
:1038A00000210846FCF72EFEFFF749FE00207AE7CC
:1038B00000B515481438008800F0010008B1FFF782
:1038C0003EFE11481438008800F0020038B10E485E
:1038D0001438008820F002000B49143908800A4887
:1038E0001438008840F6FA710840074914390880F6
:1038F00000BF05481438008800F020000028F8D0E8
:1039000000BD0000EA600008182800408051010056
:103910001400002016020020F66000080085E20175
:103920008033E1010010024000700040046C004050
:1039300046495253542054494D450A004F4B0A0002
:1039400010B52E48C06840F4FE702C49C860FCF7E2
:1039500097FE10BD70B5002500240020284908609E
:1039600019E02848006818B1681CC5B2002408E0B6
:10397000601CC4B2032C04DD012021490860002032
:1039800070BD1E20FCF786FD642D04DB00201C4961
:1039900008600120F4E7E4E710B501201A49086047
:1039A000FFF7D8FF08B1FFF7CBFF10BD10B51348E4
:1039B000806940F00400114988610846806940F040
:1039C000010088611148006820F00F000F4908606D
:1039D0000846006840F008000860022200210846FE
:1039E000FCF7D8FDFFF7B6FF08B9FCF749FE022344
:1039F000062219461846FCF785FD10BD001002404E
:103A00009481214200012142140401400008014038
:103A10009748806940F0040095498861954800689E
:103A200020F47F60934908609148806940F40070F9
:103A30008F4988610846C06840F40070C860084635
:103A4000C06820F40070C8600846406820F4404018
:103A500048600846406840F4004048608648006876
:103A6000864908408449086008460068086008469E
:103A7000006840F4005008600846006840F4807018
:103A80000860081D006840F00200091D0860084633
:103A9000006820F4602008600846006840F4602058
:103AA00008600846006840F4801008600846006816
:103AB00020F4006008600846006840F480700860E8
:103AC0006D482830006820F470006B492831086088
:103AD0000846006840F4801008606748303000688D
:103AE00040F001006449303108600846006840F049
:103AF0004000086060480C30006820F038005E49E3
:103B00000C3108600846006840F03800086008463C
:103B1000006840F4E07008605748001D006840F0FD
:103B200001005549091D08600846006840F008007A
:103B3000086000BF5048001D006800F00800002821
:103B4000F8D14D48001D006840F004004A49091DA5
:103B5000086000BF4848001D006800F0040000280D
:103B6000F8D14548001D006840F480004249091D15
:103B700008607047014640483030006820F01F0060
:103B80003D4A3032106010460068084310603A48E1
:103B9000001D006840F48000374A121D106000BF0D
:103BA0003548001F006800F002000028F8D03248B5
:103BB0004830006880B270472DE9F04107460C4656
:103BC0000025002608E03846FFF7D4FF054405200D
:103BD000FCF760FC701CC6B2A642F4DBB5FBF4F047
:103BE00080B2BDE8F0812DE9F04104460E4617464B
:103BF0001D461F48406940F001001D4948610520ED
:103C0000FCF748FCA660E7601D4805806560002061
:103C10002060206820F010002060206840F0200024
:103C2000206020682060206840F0800020602068CC
:103C300040F480702060206840F48060206020683C
:103C400040F48050206020682060206840F001002F
:103C50002060BDE8F081016821F0010101600849A0
:103C600009884160016841F001010160704700006E
:103C7000001002400008014004240140FFFFF00052
:103C80001600002010B58CB004461E230BAA03A911
:103C9000204600F00DFE0090009810B101200CB0FD
:103CA00010BD9DF82C00044400200B900EE05E48EF
:103CB0009DF82C2050F8221003A800F061FD00B9F7
:103CC00008E09DF82C00401CC0B20B909DF82C0021
:103CD0000828ECDB00BF9DF82C00072879D2DFE82C
:103CE00000F00405395B8BA2A10000BF4FA001F0DA
:103CF00079FA4FA001F076FA5DA001F073FA6CA09A
:103D000001F070FA7AA001F06DFA89A001F06AFA68
:103D100097A001F067FAA4A001F064FAA9A001F04D
:103D200061FAAEA001F05EFAB2A001F05BFAB7A0B2
:103D300001F058FABBA001F055FAC1A001F052FA07
:103D4000CCA001F04FFAD8A001F04CFAE3A001F0AA
:103D500049FAA5E235A001F045FAF0A001F042FAD7
:103D600000200B900EE0FD4800689DF82C2000EB31
:103D7000C2004168FAA001F035FA9DF82C00401C01
:103D8000C0B20B90F548007D9DF82C108842EADC0B
:103D900026A001F027FA83E224A001F023FAF2A082
:103DA00001F020FA00200B901CE0EC4909689DF816
:103DB0002C2001EBC20101AB02AA486803A900F064
:103DC0009DFDE64800689DF82C1050F8312003A9AD
:103DD00000E063E2F4A001F005FA9DF82C00401C1D
:103DE000C0B20B90DD48007D9DF82C108842DCDCD1
:103DF0000EA001F0F7F953E20CA001F0F3F90BAAC1
:103E000003A9204600F056FE9DF82C0040B96946F3
:103E100003A800F0E8FC0B909DF82C0008B9CDE158
:103E2000DEE1D0E10DE2E1E1180000200D0A000022
:103E30002D2D2D2D2D2D2D2D2D2D2D2D2D2D2D2DB2
:103E40002D2D2D2D2D2D2D2D55534D4152542056B8
:103E5000322E382D2D2D2D2D2D2D2D2D2D2D2D2D81
:103E60002D2D2D2D2D2D2D2D2D2D2D200D0A00002C
:103E70002020202055534D415254CAC7D3C9414C2C
:103E800049454E54454BBFAAB7A2B5C4D2BBB8F6FC
:103E9000C1E9C7C9B5C4B4AEBFDAB5F7CAD4BBA5CA
:103EA000BDBBD7E9BCFE2CCDA8B9FD200D0A000092
:103EB000CBFC2CC4E3BFC9D2D4CDA8B9FDB4AEBFEE
:103EC000DAD6FACAD6B5F7D3C3B3CCD0F2C0EFC3B3
:103ED000E6B5C4C8CEBACEBAAFCAFD2CB2A2D6B42B
:103EE000D0D02ED2F2B4CB2CC4E3BFC90D0A00004F
:103EF000D2D4CBE6D2E2B8FCB8C4BAAFCAFDB5C4DE
:103F0000CAE4C8EBB2CECAFD28D6A7B3D6CAFDD73D
:103F1000D62831302F3136BDF8D6C629A1A2D7D642
:103F2000B7FBB4AEA1A2BAAFCAFDC8EB0D0A000040
:103F3000BFDAB5D8D6B7B5C8D7F7CEAAB2CECAFDC4
:103F4000292CB5A5B8F6BAAFCAFDD7EEB6E0D6A70C
:103F5000B3D63130B8F6CAE4C8EBB2CECAFD2CB243
:103F6000A2D6A7B3D6BAAFCAFDB7B5200D0A0000D6
:103F7000BBD8D6B5CFD4CABE2ED0C2D4F6B2CECA24
:103F8000FDCFD4CABEBDF8D6C6C9E8D6C3B9A6C44B
:103F9000DC2CD0C2D4F6BDF8D6C6D7AABBBBB9A616
:103FA000C4DC2E0D0A000000BCBCCAF5D6A7B3D6EF
:103FB0003A7777772E6F70656E6564762E636F6DD6
:103FC0000D0A000055534D415254D3D036B8F6CFA8
:103FD000B5CDB3C3FCC1EE3A0D0A00003F3A202034
:103FE0002020BBF1C8A1B0EFD6FAD0C5CFA20D0AF0
:103FF0000000000068656C703A20BBF1C8A1B0EF0A
:10400000D6FAD0C5CFA20D0A000000006C69737407
:104010003A20BFC9D3C3B5C4BAAFCAFDC1D0B1ED50
:104020000D0A0A0069643A202020BFC9D3C3BAAF81
:10403000CAFDB5C44944C1D0B1ED0D0A0A00000063
:104040006865783A2020B2CECAFD3136BDF8D6C6B2
:10405000CFD4CABE2CBAF3B8FABFD5B8F12BCAFD7B
:10406000D7D6BCB4D6B4D0D0BDF8D6C6D7AABBBBC1
:104070000D0A0A006465633A2020B2CECAFD3130D1
:10408000BDF8D6C6CFD4CABE2CBAF3B8FABFD5B8DD
:10409000F12BCAFDD7D6BCB4D6B4D0D0BDF8D6C6A5
:1040A000D7AABBBB0D0A0A00C7EBB0B4D5D5B3CCB9
:1040B000D0F2B1E0D0B4B8F1CABDCAE4C8EBBAAF2F
:1040C000CAFDC3FBBCB0B2CECAFDB2A2D2D4BBD82B
:1040D000B3B5BCFCBDE1CAF82E0D0A002D2D2D2D67
:1040E0002D2D2D2D2D2D2D2D2D2D2D2D2D2D2D2D00
:1040F0002D2D2D2D2D2D414C49454E54454B2D2D0B
:104100002D2D2D2D2D2D2D2D2D2D2D2D2D2D2D2DDF
:104110002D2D2D2D2D2D2D200D0A00002D2D2D2D79
:104120002D2D2D2D2D2D2D2D2D2D2D2D2D2D2D2DBF
:104130002D2D2D2D2DBAAFCAFDC7E5B5A52D2D2DE1
:104140002D2D2D2D2D2D2D2D2D2D2D2D2D2D2D2D9F
:104150002D2D2D2D2D2D2D2D200D0A005800002048
:1041600025730D0A000000002D2D2D2D2D2D2D2D38
:104170002D2D2D2D2D2D2D2D2D2D2D2D2D2D2D2D6F
:104180002DBAAFCAFD204944202D2D2D2D2D2D2DCA
:104190002D2D2D2D2D2D2D2D2D2D2D2D2D2D2D2D4F
:1041A0002D2D2D2D200D0A002573206964206973A3
:1041B0003A0D0A3058253038580D0A00F6A00099FB
:1041C00001F010F80EE09DF82C00042801D0022028
:1041D00065E5F4A001F006F80120F749C87501E093
:1041E00002205CE5EEA000F0FDFF59E0ECA000F03D
:1041F000F9FF0BAA03A9204600F05CFC9DF82C00F7
:10420000C8B9694603A800F0EEFA0B909DF82C009F
:1042100020B9EAA0009900F0E5FF0EE09DF82C001F
:10422000042801D002203AE5E7A000F0DBFF0020DF
:10423000E149C87501E0022031E5D9A000F0D2FFC4
:104240002EE0D7A000F0CEFF0BAA03A9204600F075
:1042500031FC9DF82C00D8B9694603A800F0C3FAD8
:104260000B909DF82C0088B9D348C07D012806D159
:10427000009801460268D9A000F0B4FF0AE0009857
:1042800001460268D9A000F0ADFF03E0022006E578
:10429000022004E5C2A000F0A5FF01E00120FEE439
:1042A00000BF0020FBE410B54FF08040008A00F012
:1042B000010010B1C049086980474FF08040008A72
:1042C00020F001004FF08041088210BD70B5054616
:1042D0000C46C948C06940F00100C749C86188045C
:1042E00085850485808940F001008904888108461D
:1042F000808940F0400088810846008840F0010035
:10430000088002231C2203210846FCF7FBF870BD3D
:1043100010B5044604EBC40000EB04100122C2EB0C
:10432000800081B24FF47A70FFF7D0FF0120A249DC
:10433000C87510BD30B595B0054613AB12AA09A9D2
:10434000284600F0DBFA044614B1204615B030BD13
:104350000020149026E0984909689DF8502001EB50
:10436000C20113AB11AA486801A900F0C7FA0446BC
:104370000CB12046EAE709A901A800F001FA60B9EA
:104380009DF844009DF84810884201DD0220DDE7D9
:104390009DF85000884988750AE09DF85000401C3F
:1043A000C0B214908448007D9DF850108842D2DC41
:1043B00000BF8148007D9DF85010884201D1042043
:1043C000C4E714A9284600F0E0FB04460CB12046DF
:1043D000BCE79DF85000784948750020B6E7F0B575
:1043E0009BB07548847D007DA04201DC1BB0F0BD10
:1043F0007149096801EBC40107AB08AA486809A91B
:1044000000F07CFA09A97DA000F0ECFE002644E053
:104410006948018B0120B0400140D9B1222179A027
:1044200000F0E0FE304600F0A3FB6349243147185A
:10443000394675A000F0D6FE222172A000F0D2FE0F
:10444000304600F095FB5C492431084411A941F83D
:10445000260018E0304600F08BFB574924310858FD
:1044600011A941F826005448C07D30B911A850F870
:10447000261066A000F0B6FE05E011A850F8261040
:1044800063A000F0AFFE9DF82000401EB04202D0B5
:1044900061A000F0A7FE701CC6B29DF82000864205
:1044A000B6DB5EA000F09EFE4348407D0B280DD297
:1044B000DFE800F0060D151E27323F4E5FB6CB0039
:1044C0003D49096851F8340080470546D4E03A4A2E
:1044D000126852F83410119888470546CCE0364BE4
:1044E0001B6853F83420DDE9110190470546C3E00D
:1044F000314F3F6857F8343011A807C89847054630
:10450000BAE0DFF8B4C0DCF800C05CF8347011A881
:104510000FC8B8470546AFE01598DFF89CC000907B
:10452000DCF800C05CF8347011A80FC8B847054625
:10453000A2E0DDE91501DFF880C0CDE90001DCF87B
:1045400000C05CF8347011A80FC8B847054693E066
:10455000DDE915121798DFF860C0CDE9001202906E
:10456000DCF800C05CF8347011A80FC8B8470546E5
:1045700082E0DDE91523DDE91710DFF83CC0CDE965
:104580000023CDE90210DCF800C05CF8347011A8FB
:104590000FC8B84705466FE04845583A3058255887
:1045A0000D0A00003136BDF8D6C6B2CECAFDCFD452
:1045B000CABE210D0A000000580000204445433ABD
:1045C000256C750D0A0000003130BDF8D6C6B2CE9C
:1045D000CAFDCFD4CABE210D0A0000002A283058D7
:1045E0002558293D305825580D0A00002A282564F1
:1045F000293D25640D0A0000001002400D0A2573B4
:10460000280000002563000025730000256C75005C
:1046100030582558000000002C0000002900000040
:10462000DDE91613DDE91802CDE90113CDE9030236
:104630001598DFF8F4C00090DCF800C05CF8347026
:1046400011A80FC8B847054616E0DDE91723DDE9D4
:104650001910CDE90223CDE90410DDE91501DFF8D9
:10466000C8C0CDE90001DCF800C05CF8347011A8C6
:104670000FC8B847054600BF00BF9DF81C000128C1
:104680000CD12948C07D20B9294628A000F0AAFDF8
:1046900007E0294627A000F0A5FD02E024A000F0D5
:1046A000A1FD00BFA2E670B52548008800F40040D7
:1046B000002833D0224805780020224948551A485E
:1046C00081682048884704461CB91749C868804754
:1046D00021E01C48FFF7D6FA0546012D00D02C46F4
:1046E000CCB1012C06D0022C08D0032C0AD0042C0B
:1046F00010D10BE014A000F075FD0BE015A000F048
:1047000071FD07E016A000F06DFD03E017A000F0BA
:1047100069FD00BF00BF00200949088070BD014647
:104720000868704701607047580000203D256C758F
:104730003B0D0A003D305825583B0D0A0000000093
:104740000800002044010020BAAFCAFDB4EDCEF34A
:10475000210D0A00B2CECAFDB4EDCEF3210D0A0040
:10476000B2CECAFDCCABB6E0210D0A00CEB4D5D294
:10477000B5BDC6A5C5E4B5C4BAAFCAFD210D0A00D2
:1047800002460AE010780B78984201D00120704769
:10479000107800B902E0521C491CF3E700BF00206A
:1047A000F5E706E002780A70027802B902E0401CE0
:1047B000491CF7E700BF70470146002005E00A7872
:1047C00002B903E0421CD0B2491CF8E700BF7047B1
:1047D00010B50246012000E050430B00A1F1010496
:1047E000E1B2F9D110BD2DE9F04307460E46002590
:1047F0004FF00A083C46002030601FE0207839283E
:1048000002DC207830280ADA2078462802DC20787A
:10481000412804DA2078582809D1012D07D12078C1
:10482000412801DB4FF01008681CC5B205E0207874
:1048300000B904E00120BDE8F083641CDEE700BF9E
:104840003C46B8F1100F0FD1032D01DA0220F2E738
:104850002078302806D16078582803D1A41CA81EDF
:10486000C5B204E00320E6E70DB90420E3E71BE04E
:104870000DB1681EC5B22078392806DC20783028B2
:1048800003DB2078A0F1300902E02078A0F137099D
:1048900029464046FFF79CFF316809FB0010306055
:1048A000641C207800B900E0E2E700BF0020C2E706
:1048B00010B50446002010700BE020780870641CCE
:1048C000491C1078401C10701078984201DB0120C0
:1048D00010BD2078202802D020780028EDD10020BB
:1048E000087000BFF4E70146491C00E0491C087845
:1048F000202801D10029F9D1087870472DE9FF4F10
:1049000085B080468946002700200490039001204E
:1049100002904FF0000B002544461DE0207820282F
:1049200016D005F07F00052812DA0DB945F0800594
:1049300005F07F00042803D120782A2800D00EE05B
:10494000207805F07F010DF80100681CC5B202E077
:10495000852D00D103E0641C20780028DED100BF43
:104960008DB1002005F07F010DF80100C8A1684657
:10497000FFF706FF18B900210898017002E0012135
:104980000898017000254FF0000A444614E0641CAA
:104990000AF1010000F0FF0A2078202802D02078D8
:1049A0002A2809D12046FFF79EFF0646282E03D06D
:1049B0002A2E01D0CDF810A02078282802D0207807
:1049C0000028E4D14446049810B10498401C0444E3
:1049D0004FF0000A002654E0207810B94FF0010A89
:1049E00050E02078282803D116B9781CC7B213E00C
:1049F0002078292808D13EB917B1781EC7B201E046
:104A00004FF0010A47B93DE02078222804D10EB9C1
:104A1000012000E00020064647B9207820282FD04A
:104A2000207889F8000009F1010929E020782C2874
:104A300004D101200290681CC5B214E0207820281F
:104A400011D0207828280ED04DB9BBF1050F06DA19
:104A500020780DF80B000BF1010000F0FF0B02981D
:104A6000401CC0B20290012F0AD10298022807D13F
:104A70000298401CC0B202900398401CC0B2039040
:104A8000641CA9E700BF0398012809D100200DF894
:104A90000B007FA16846FFF773FE08B90020039062
:104AA000079903980870002089F80000504609B063
:104AB000BDE8F08FF0B50346154600200022002621
:104AC00000244FE01F782C2F01D104B901221F7858
:104AD000292F01D01F780FB904B944E0002E34D13A
:104AE0001F78302F02DB1F78392F11DD1F78612FDF
:104AF00002DB1F78662F0BDD1F78412F02DB1F784A
:104B0000462F05DD1F78582F02D01F78782F0CD143
:104B100002B128E01F78612F03DB1F78203F0F7060
:104B200001E01F780F70491C19E01F78222F04D173
:104B300002B118E00126012411E01F78202F0ED0C9
:104B40001F782C2F0BD0FF260DE01F78222F00D1CD
:104B5000002402B107E014B11F780F70491C471CF4
:104B6000F8B25B1CAEE700BF00270F702E70F0BDDF
:104B700002460020002105E0474B5B5C0344D8B2AD
:104B80004B1CD9B29142F7DB70472DE9F043B5B029
:104B900005460F460024002604E000213E488155CA
:104BA000701CC6B20A2EF8DB06E06D1C287818B916
:104BB000012035B0BDE8F08328782828F5D16D1C98
:104BC00061E034AA69462846FFF774FF064635447B
:104BD0009DF8D00020B1012827D0FF284CD149E012
:104BE0009DF8000000B333A96846FFF7FCFD0646B8
:104BF0000EB10220DDE72046FFF7BAFF26490A3151
:104C0000339A0A50A1F12400008B0121A14088436E
:104C100021491A39088304211F480155601CC4B278
:104C20000A2C01DD0320C4E726E06846FFF7C4FD37
:104C3000401C00F0FF082046FFF79AFF16490A3192
:104C400000EB010949466846FFF7ABFD12481A38E8
:104C5000018B0120A040014388B20F491A39088313
:104C60000D4800F80480601CC4B20A2C01DD03204A
:104C70009FE701E002209CE700BF2878292801D0A7
:104C8000287800B900E09CE700BF3C70002090E766
:104C9000766F69640000000072000020F0B480EAC2
:104CA0000102D40F4200B2EB410F02D20246084685
:104CB00011464A0042D0C30DDDB2C1F3C752AD1A4E
:104CC000202D35DAC1F3160141F4000204B152423D
:104CD000C5F1200602FA06F12A411044B3EBD05F79
:104CE00023D0C4B1012DA0EBC35009DCF0BC4FF0C0
:104CF000004202EAC352DBB200F5000000F08AB9BC
:104D0000400000F1807000EBC350A0F1807040EAD9
:104D1000D170490009E0490841EAC071A0EBC350D5
:104D200000F50000400800EBC350F0BC00F069B98A
:104D30006142012202EB4101001BF6E7F0BC704723
:104D400081F00041AAE780F00040A7E780EA010275
:104D500010B502F00043400022D04A001FD0010EDF
:104D600001EB1261C0F35600C2F3560240F400009A
:104D700042F40002A0FB022000047F39140400D09A
:104D8000401C50EA124001D44000491EC2B20C0639
:104D900004EBD010401C4008802A02D003E0002021
:104DA00010BD20F00100002900DA0020184310BDDA
:104DB00030B480EA010202F0004530F0004221F0F8
:104DC000004013D090B1C30DD40DC2F31601C0F34F
:104DD0001600E41A41F4000140F400027D349142CF
:104DE00001D3641C00E04900002C02DA30BC002032
:104DF00070474FF400000023914201D3891A034306
:104E000040084FEA4101F7D151B1914202D14FF030
:104E1000004105E002D24FF0010101E06FF0010115
:104E200003EBC450284430BC00F0EBB82DE9FE4F32
:104E300081EA030404F0004421F0004100944FF0A3
:104E4000000B23F0004350EA01045ED052EA030451
:104E50005BD0C3F30A54C1F30A552C44A4F2F334D3
:104E60000194A0FB0254C1F3130141F48011C3F378
:104E7000130343F4801301FB024400FB034E840A36
:104E8000970A44EA815447EA8357A4FB07680295CE
:104E90008D0A05FB07854FEA932C04FB0C5427056C
:104EA000029D4FEA065847EA1637B5EB08056EEB48
:104EB000070C870E920E47EA811742EA8312A7FB7E
:104EC0000201B6EB0B0164EB00042B0D43EA0C333B
:104ED0005E1844EB1C50DA465146E7FB0201C5F36D
:104EE00013044FEA0B3343EA14534FEA0432019C94
:104EF00043EA0603A4F10C040294009CCDE900B43B
:104F000000F0C5F803B0BDE8F08F00200146F9E7D6
:104F100096230022114600F07DB820F00040C10D1C
:104F2000C0F3160040F400007F2901DA002070472A
:104F3000962903DCC1F19601C84070479639884034
:104F4000704700F0004230F000400AD0C10D01F57A
:104F50006071C0F3160042EA0151C20840071143D4
:104F6000704700200146704701F0004330B421F043
:104F7000004150EA010206D00A0DA2F56072C1F3A9
:104F80001301002A02DC30BC00207047440F44EAC1
:104F9000C104C100E01830BC00EBC25000F031B8D1
:104FA0002DE9F05F0546002092469B46884606465E
:104FB000814640241BE0284641464746224600F0F1
:104FC000D6F853465A46C01A914110D31146184696
:104FD000224600F0BDF82D1A67EB01084F46224625
:104FE0000120002100F0B4F817EB00094E41201E0B
:104FF000A4F10104DFDC484631462A464346BDE8B9
:10500000F09F0029A8BF7047401C490008BF20F04E
:105010000100704710B4B0FA80FC00FA0CF050EABE
:10502000010404BF10BC704749B1CCF1200421FA3F
:1050300004F411FA0CF118BF012121430843A3EB3A
:105040000C01CB1D4FEA00614FEA102042BF002047
:1050500010BC704700EBC35010440029A4BF10BC23
:105060007047401C490008BF20F0010010BC704789
:1050700010B5141E73F1000408DA401C41F1000160
:1050800092185B411A4301D120F0010010BD2DE9B7
:10509000F04D92469B4611B1B1FA81F202E0B0FAAE
:1050A00080F22032904600F053F804460F4640EA62
:1050B0000A0041EA0B0153465A46084313D01146F1
:1050C00053EA010019D0C8F14002504600F04FF8F1
:1050D00005460E4650465946424600F039F8084308
:1050E00005D0012004E020463946BDE8F08D0020BF
:1050F000054346EAE0762C4337430A986305E40A01
:10510000A0EB08000022FD0A44EA47540A3002D509
:1051100000200146E9E7010510196941DDE908456C
:1051200000196941BDE8F04DA2E70000064C074DAB
:1051300006E0E06840F0010394E807009847103467
:10514000AC42F6D3FAF7F8FFCC610008EC61000836
:10515000202A04DB203A00FA02F100207047914037
:10516000C2F1200320FA03F3194390407047202A2C
:1051700004DB203A21FA02F00021704721FA02F301
:10518000D040C2F12002914008431946704770B5E3
:105190008C1810F8015B15F0070301D110F8013BE2
:1051A0002A1106D110F8012B03E010F8016B01F869
:1051B000016B5B1EF9D12B0705D40023521E0DD4C1
:1051C00001F8013BFAE710F8013BCB1A921C03E00F
:1051D00013F8015B01F8015B521EF9D5A142D8D347
:1051E000002070BD0FB4054B10B503A9044A029806
:1051F00000F018F810BC5DF814FB0000B7070008B9
:105200000400002002E008C8121F08C1002AFAD1D9
:1052100070477047002001E001C1121F002AFBD136
:10522000704700002DE9FF4F8DB00F460546002660
:1052300006E025280BD0DDE90F1290476D1C761C87
:1052400028780028F5D111B03046BDE8F08F002451
:10525000A246A1460122EC4900E0044315F8013FB3
:10526000203B02FA03F00842F7D128782A2810D010
:105270006FF02F022878A0F13001092914D80AEB29
:105280008A0102EB410144F0020400EB010A6D1CAB
:10529000F0E701CF5FEA000A03D544F40054CAF1F5
:1052A000000A44F002046D1C28782E2817D115F846
:1052B000010F44F004042A280ED06FF02F02287842
:1052C000A0F1300109290AD809EB890102EB41015B
:1052D00000EB01096D1CF2E757F8049B6D1C287860
:1052E0006C280FD006DC4C2817D068280DD06A280F
:1052F00014D104E0742810D07A280FD10DE044F4C2
:1053000000140AE044F4801401E044F44014697885
:10531000814202D104F580146D1C6D1C2A786E2A1E
:105320001FD00CDC632A31D004DC002A8BD0582A31
:1053300011D1A3E0642A68D0692A0CD165E0732AF0
:105340002ED004DC6F2A73D0702A04D19BE0752A1A
:105350006FD0782A6ED01046DDE90F129047761C88
:1053600050E1C4F30250022806D0032809D00428D3
:1053700001CF09D0066045E101CFF117C0E9006116
:1053800040E101CF06803DE106703BE117F8040BD8
:105390008DF8000000208DF80100EB46012003E0AD
:1053A00057F804BB4FF0FF3061074FF0000102D403
:1053B0000DE008F10101884649450FDA8045F8DB28
:1053C0001BF808100029F4D108E008F10101884613
:1053D0008142FADB1BF808100029F6D1DDE90F2322
:1053E000AAEB08008146214600F036F9304400EB74
:1053F000080604E0DDE90F121BF8010B9047B8F135
:105400000108F7D221464846F7E00A21C4F30253C7
:105410004FF0000B0891022B04D001CFC117032BD2
:1054200009D00AE0FF1D27F00707F7E8020108E0AE
:1054300032E01FE020E000B2C117042B01D140B2DE
:10544000C117031E71F1000307DA4FF0000CD0EB17
:105450000C006CEB01012D2302E0230504D52B2366
:105460008DF82430012303E0E30701D02023F7E780
:10547000984658E00A2110E010210EE010204FF06D
:10548000000B08900CE010214FF0000B44F00404D6
:105490004FF00809089103E008214FF0000B089134
:1054A000C4F30253022B04D001CF0021032B06D0FA
:1054B00006E0FF1D27F00707F7E8020103E080B2CE
:1054C000042B00D1C0B24FF0000823072BD5702A5F
:1054D00007D0DDF820C08CF0100C5CEA0B0C05D076
:1054E0000EE040238DF82430012308E050EA010348
:1054F00006D030238DF824308DF8252002239846DD
:10550000DDF820C08CF0080C5CEA0B0C0BD150EAE3
:10551000010301D1630706D530238DF824304FF005
:105520000108A9F10109582A04D038A20B9208AA4F
:105530000A920BE03AA2F9E75B46089AFFF730FDC2
:105540000B9B9B5C0A9A521E0A92137050EA01024E
:10555000F2D10A98ADEB000000F1200B600702D5F4
:1055600024F4803401E04FF00109D94502DDA9EBB4
:105570000B0000E0002000EB0B0141440890AAEB77
:10558000010AE00306D4DDE90F232146504600F06E
:1055900063F806444FF0000908E009A911F8090072
:1055A000DDE90F12904709F10109761CC145F4DBD2
:1055B000E0030CD5DDE90F232146504600F04CF8FE
:1055C000064404E0DDE90F1230209047761C08996C
:1055D000481E08900029F5DC08E00A980A9900782E
:1055E000491C0A91DDE90F129047761CBBF10001BE
:1055F000ABF1010BF1DC21465046DDE90F2300F051
:1056000019F806446D1C1BE60928010030313233BD
:1056100034353637383961626364656600000000EE
:1056200030313233343536373839414243444546D8
:10563000000000002DE9F041044600251E461746F3
:10564000880404D405E039462020B0476D1C641E50
:10565000F9D52846BDE8F0812DE9F0410446002542
:105660001E469046C80301D5302700E02027880455
:1056700004D505E041463846B0476D1C641EF9D597
:105680002846BDE8F0810000000000000000000096
:105690000000000000003F4000000000000000008B
:1056A0003000400030004000000009000BC03D0009
:1056B0000BC03D00090018C024407FE0224031802B
:1056C0000000180024C01B000D80324001800380C0
:1056D0001C4027401C800740004010006000000074
:1056E0000000000000000000000000001F802040BB
:1056F00040200000402020401F80000000000900E2
:1057000006001F80060009000000040004003F801E
:105710000400040000000010006000000000000011
:105720000000040004000400040004000000000065
:1057300000400000000000000000002001C0060042
:105740003800400000001F802040204020401F8083
:105750000000000010403FC000400000000018C0E2
:105760002140224024401840000010802040244066
:1057700024401B80000002000D0011003FC00140CA
:1057800000003C80244024402440238000001F80EF
:10579000244024403440038000003000200027C013
:1057A0003800200000001B802440244024401B803F
:1057B00000001C0022C0224022401F800000000088
:1057C000000008400000000000000000000004602D
:1057D000000000000000000004000A00110020800A
:1057E000404009000900090009000900000000000C
:1057F0004040208011000A000400180020002340CF
:105800002400180000001F802040274029401F402E
:105810000000004007C039000F0001C000402040D8
:105820003FC0244024401B8000001F8020402040B7
:1058300020403080000020403FC0204020401F809A
:10584000000020403FC024402E4030C000002040D7
:105850003FC024402E00300000000F001080204088
:1058600022403380020020403FC0040004003FC0BB
:105870002040204020403FC02040204000000060E9
:10588000202020203FC02000200020403FC0244096
:105890000B0030C0204020403FC02040004000406E
:1058A00000C03FC03C0003C03C003FC0000020409F
:1058B0003FC00C4023003FC020001F8020402040FC
:1058C00020401F80000020403FC0244024001800DA
:1058D00000001F802140214020E01FA00000204048
:1058E0003FC02440260019C0004018C02440244076
:1058F000224031800000300020403FC02040300076
:10590000000020003F80004000403F802000200039
:105910003E0001C0070038002000380007C03C00EE
:1059200007C038000000204039C0060039C02040C0
:1059300000002000384007C0384020000000304000
:1059400021C02640384020C00000000000007FE059
:10595000402040200000000070000C000380004048
:1059600000000000402040207FE000000000000018
:105970002000400020000000000000100010001077
:1059800000100010001000000000400000000000A7
:105990000000000002800540054003C000402000D8
:1059A0003FC0044004400380000000000380044026
:1059B00004400640000000000380044024403FC033
:1059C0000040000003800540054003400000000047
:1059D00004401FC0244024402000000002E0055085
:1059E00005500650042020403FC00440040003C07E
:1059F00000400000044027C00040000000000010EC
:105A00000010041027E00000000020403FC00140CB
:105A1000070004C00440204020403FC00040004038
:105A2000000007C0040007C0040003C000000440D9
:105A300007C00440040003C000400000038004408D
:105A4000044003800000041007F004500440038069
:105A50000000000003800440045007F000100440E0
:105A600007C002400400040000000000064005409A
:105A7000054004C00000000004001F8004400040F6
:105A80000000040007800040044007C000400400FC
:105A9000070004C0018006000400060001C00700E2
:105AA00001C006000000044006C0010006C004401A
:105AB00000000410071004E001800600040000004C
:105AC000044005C00640044000000000000004003F
:105AD0007BE040200000000000000000FFF000001C
